:100000000C943E000C9448000C9448000C9448005A
:100010000C9448000C9448000C9448000C94480040
:100020000C9448000C9448000C9448000C94480030
:100030000C9448000C9448000C9448000C94480020
:100040000C9448000C9448000C9448000C94480010
:100050000C9448000C9448000C9448000C94480000
:100060000C9448000C9448000C9448000C944800F0
:100070000C9448000C9448000C94480011241FBEB6
:10008000CFEFD0E1DEBFCDBF0E946A000C948000AC
:100090000C9400008DE490E09093C5008093C40020
:1000A00088E18093C10086E08093C200089590911A
:1000B000C00095FFFCCF8093C60008958091C000DA
:1000C00087FFFCCF8091C600089588B190E489270E
:1000D00088B908950E944A003E9A81E40E94570020
:1000E0000E945E00813411F40E9465002FE38DE0D0
:1000F00093E0215080409040E1F700C00000EDCF38
:04010000F894FFCFA1
:00000001FF
