:100000000C943E000C9448000C9448000C9448005A
:100010000C9448000C9448000C9448000C94480040
:100020000C9448000C9448000C9448000C94480030
:100030000C9448000C9448000C9448000C94480020
:100040000C9448000C9448000C9448000C94480010
:100050000C9448000C9448000C9448000C94480000
:100060000C9448000C9448000C9448000C944800F0
:100070000C9448000C9448000C94480011241FBEB6
:10008000CFEFD0E1DEBFCDBF0E944A000C945D00EF
:100090000C9400000E98169A3E9A90E4069903C0BC
:1000A00088B1892788B92FE739EA83E021503040A9
:0E00B0008040E1F700C00000F1CFF894FFCFD0
:00000001FF
