:100000000C943E000C9450000C9450000C94500042
:100010000C9450000C9450000C9450000C94500020
:100020000C9450000C9450000C9450000C94500010
:100030000C9450000C9450000C9450000C945E00F2
:100040000C9450000C9450000C9450000C945000F0
:100050000C9450000C9450000C9450000C945000E0
:100060000C9450000C9450000C9450000C945000D0
:100070000C9450000C9450000C94500011241FBE9E
:10008000CFEFD0E1DEBFCDBF21E0A0E0B1E001C005
:100090001D92A230B207E1F70E9482000C94860004
:1000A0000C940000E1E8F0E0808183608083EFE65B
:1000B000F0E0808181608083789408951F921FB65C
:1000C0001F9211248F939F938091000190910101C1
:1000D000019690930101809300018091000190911D
:1000E00001018930910540F0109201011092000148
:1000F00088B190E4892788B99F918F911F901FBE86
:100100001F9018950E9452003E9AFFCFF894FFCF9F
:00000001FF
