:100000000C943E000C9453000C9453000C94530039
:100010000C9453000C9453000C9453000C94530014
:100020000C9453000C9453000C9453000C94530004
:100030000C9453000C9453000C9453000C945300F4
:100040000C9453000C9453000C9453000C945300E4
:100050000C9453000C9453000C9453000C945300D4
:100060000C9453000C9453000C9453000C945300C4
:100070000C9453000C9453000C94530011241FBE95
:10008000CFEFD0E1DEBFCDBF11E0A0E0B1E0E0E313
:10009000F2E002C005900D92A431B107D9F70E9499
:1000A000C9000C9416010C9400008DE490E090932C
:1000B000C5008093C40088E18093C10086E08093EE
:1000C000C20008959091C00095FFFCCF8093C600B8
:1000D00008958091C00087FFFCCF8091C6000895ED
:1000E000EF92FF920F931F93CF93DF93EC017C016C
:1000F00000E010E0FE0101900020E9F73197EC1BD1
:10010000FD0B0E171F0738F0DF91CF911F910F9154
:10011000FF90EF900895F70181917F010E946200A6
:100120000F5F1F4FE7CFCF92DF92EF92FF920F93B7
:100130001F93CF93DF938C01EB01AB0160E070E084
:100140000E9406017801C12CD12C2197CC16DD0626
:1001500064F0F7011082C801DF91CF911F910F91D8
:10016000FF90EF90DF90CF9008950E946900882360
:1001700081F38A3071F38D3061F3F70181937F0150
:10018000FFEFCF1ADF0AE2CF88B190E4892788B960
:100190000895CDB7DEB7E2970FB6F894DEBF0FBE75
:1001A000CDBF0E9455003E9A80E091E00E94700011
:1001B00062E370E0CE0101960E9493008C010E94E0
:1001C00070008DE091E00E947000F8010190002025
:1001D000E9F73197CF01801B910B0E9470008DE0F1
:1001E00091E00E94700060E171E0C8010E940D0181
:1001F000892B11F40E94C4002FE38DE093E021507D
:1002000080409040E1F700C00000CECFDC0101C08B
:100210006D9341505040E0F70895FB01DC018D9152
:10022000019080190110D9F3990B0895F894FFCF2C
:1002300048656C6C6F2C20776F726C64210A0D001E
:040240006F6E0000DD
:00000001FF
