:100000000C943E000C9453000C9453000C94530039
:100010000C9453000C9453000C9453000C94530014
:100020000C9453000C9453000C9453000C94530004
:100030000C9453000C9453000C9453000C945300F4
:100040000C9453000C9453000C9453000C945300E4
:100050000C9453000C9453000C9453000C945300D4
:100060000C9453000C9453000C9453000C945300C4
:100070000C9453000C9453000C94530011241FBE95
:10008000CFEFD0E1DEBFCDBF11E0A0E0B1E0ECE901
:10009000F2E002C005900D92A431B107D9F70E9499
:1000A000FA000C944C010C9400008DE490E09093C5
:1000B000C5008093C40088E18093C10086E08093EE
:1000C000C20008959091C00095FFFCCF8093C600B8
:1000D00008950F931F93CF93DF93C7E0D0E0082FCD
:1000E00010E0C8010C2E02C0959587950A94E2F79E
:1000F0008170805D90E00E946200219790F7DF910F
:10010000CF911F910F9108958091C00087FFFCCF80
:100110008091C6000895EF92FF920F931F93CF93A3
:10012000DF93EC017C0100E010E0FE010190002073
:10013000E9F73197EC1BFD0B0E171F0738F0DF9125
:10014000CF911F910F91FF90EF900895F70181914A
:100150007F010E9462000F5F1F4FE7CF0F931F9335
:10016000CF93DF93C0E0D0E0082F10E0C017D10795
:100170002CF0DF91CF911F910F9108958DE091E0C8
:100180000E948B002196F2CFCF92DF92EF92FF92E6
:100190000F931F93CF93DF938C01EB01AB0160E0D2
:1001A00070E00E943C017801C12CD12C2197CC1623
:1001B000DD0664F0F7011082C801DF91CF911F9135
:1001C0000F91FF90EF90DF90CF9008950E948400F0
:1001D000882381F38A3071F38D3061F3F7018193C5
:1001E0007F01FFEFCF1ADF0AE2CF88B190E48927C1
:1001F00088B90895CDB7DEB7E2970FB6F894DEBFA1
:100200000FBECDBF0E9455003E9A80E091E00E9453
:100210008B0062E370E0CE0101960E94C4008C0165
:100220000E948B0081E00E94AE0085E50E9469007B
:1002300086E00E94AE00F80101900020E9F73197B6
:10024000CF01801B910B0E948B008DE091E00E94FA
:100250008B0060E171E0C8010E944301892B11F419
:100260000E94F5002FE38DE093E021508040904004
:10027000E1F700C00000C9CFDC0101C06D9341501F
:100280005040E0F70895FB01DC018D910190801949
:0C0290000110D9F3990B0895F894FFCFEA
:10029C0048656C6C6F2C20776F726C64210A0D00B2
:0402AC006F6E000071
:00000001FF
